{
  "contractName": "Voting",
  "abi": [
    {
      "inputs": [],
      "stateMutability": "nonpayable",
      "type": "constructor"
    },
    {
      "anonymous": false,
      "inputs": [
        {
          "indexed": true,
          "internalType": "address",
          "name": "voter",
          "type": "address"
        },
        {
          "indexed": false,
          "internalType": "uint256",
          "name": "candidateId",
          "type": "uint256"
        }
      ],
      "name": "VoteCast",
      "type": "event"
    },
    {
      "inputs": [],
      "name": "admin",
      "outputs": [
        {
          "internalType": "address",
          "name": "",
          "type": "address"
        }
      ],
      "stateMutability": "view",
      "type": "function"
    },
    {
      "inputs": [
        {
          "internalType": "address",
          "name": "",
          "type": "address"
        }
      ],
      "name": "eligibleVoters",
      "outputs": [
        {
          "internalType": "bool",
          "name": "",
          "type": "bool"
        }
      ],
      "stateMutability": "view",
      "type": "function"
    },
    {
      "inputs": [
        {
          "internalType": "address",
          "name": "",
          "type": "address"
        }
      ],
      "name": "hasVoted",
      "outputs": [
        {
          "internalType": "bool",
          "name": "",
          "type": "bool"
        }
      ],
      "stateMutability": "view",
      "type": "function"
    },
    {
      "inputs": [
        {
          "internalType": "uint256",
          "name": "",
          "type": "uint256"
        }
      ],
      "name": "votes",
      "outputs": [
        {
          "internalType": "uint256",
          "name": "",
          "type": "uint256"
        }
      ],
      "stateMutability": "view",
      "type": "function"
    },
    {
      "inputs": [
        {
          "internalType": "address",
          "name": "_voter",
          "type": "address"
        }
      ],
      "name": "assignVoter",
      "outputs": [],
      "stateMutability": "nonpayable",
      "type": "function"
    },
    {
      "inputs": [
        {
          "internalType": "uint256",
          "name": "_candidateId",
          "type": "uint256"
        }
      ],
      "name": "castVote",
      "outputs": [],
      "stateMutability": "nonpayable",
      "type": "function"
    },
    {
      "inputs": [
        {
          "internalType": "uint256",
          "name": "_candidateId",
          "type": "uint256"
        }
      ],
      "name": "getVoteCount",
      "outputs": [
        {
          "internalType": "uint256",
          "name": "",
          "type": "uint256"
        }
      ],
      "stateMutability": "view",
      "type": "function"
    }
  ],
  "bytecode": "0x608060405234801561000f575f80fd5b50335f806101000a81548173ffffffffffffffffffffffffffffffffffffffff021916908373ffffffffffffffffffffffffffffffffffffffff1602179055506108668061005c5f395ff3fe608060405234801561000f575f80fd5b506004361061007b575f3560e01c80636f09699c116100595780636f09699c146100fb578063b2c2f2e814610117578063e8efd48014610147578063f851a440146101775761007b565b806309eef43e1461007f5780633eb76b9c146100af5780635df81330146100cb575b5f80fd5b61009960048036038101906100949190610542565b610195565b6040516100a69190610587565b60405180910390f35b6100c960048036038101906100c491906105d3565b6101b2565b005b6100e560048036038101906100e091906105d3565b610391565b6040516100f2919061060d565b60405180910390f35b61011560048036038101906101109190610542565b6103a6565b005b610131600480360381019061012c91906105d3565b61048a565b60405161013e919061060d565b60405180910390f35b610161600480360381019061015c9190610542565b6104a4565b60405161016e9190610587565b60405180910390f35b61017f6104c1565b60405161018c9190610635565b60405180910390f35b6002602052805f5260405f205f915054906101000a900460ff1681565b60015f3373ffffffffffffffffffffffffffffffffffffffff1673ffffffffffffffffffffffffffffffffffffffff1681526020019081526020015f205f9054906101000a900460ff1661023b576040517f08c379a0000000000000000000000000000000000000000000000000000000008152600401610232906106a8565b60405180910390fd5b60025f3373ffffffffffffffffffffffffffffffffffffffff1673ffffffffffffffffffffffffffffffffffffffff1681526020019081526020015f205f9054906101000a900460ff16156102c5576040517f08c379a00000000000000000000000000000000000000000000000000000000081526004016102bc90610710565b60405180910390fd5b60035f8281526020019081526020015f205f8154809291906102e69061075b565b9190505550600160025f3373ffffffffffffffffffffffffffffffffffffffff1673ffffffffffffffffffffffffffffffffffffffff1681526020019081526020015f205f6101000a81548160ff0219169083151502179055503373ffffffffffffffffffffffffffffffffffffffff167fa36cc2bebb74db33e9f88110a07ef56e1b31b24b4c4f51b54b1664266e29f45b82604051610386919061060d565b60405180910390a250565b6003602052805f5260405f205f915090505481565b5f8054906101000a900473ffffffffffffffffffffffffffffffffffffffff1673ffffffffffffffffffffffffffffffffffffffff163373ffffffffffffffffffffffffffffffffffffffff1614610433576040517f08c379a000000000000000000000000000000000000000000000000000000000815260040161042a90610812565b60405180910390fd5b6001805f8373ffffffffffffffffffffffffffffffffffffffff1673ffffffffffffffffffffffffffffffffffffffff1681526020019081526020015f205f6101000a81548160ff02191690831515021790555050565b5f60035f8381526020019081526020015f20549050919050565b6001602052805f5260405f205f915054906101000a900460ff1681565b5f8054906101000a900473ffffffffffffffffffffffffffffffffffffffff1681565b5f80fd5b5f73ffffffffffffffffffffffffffffffffffffffff82169050919050565b5f610511826104e8565b9050919050565b61052181610507565b811461052b575f80fd5b50565b5f8135905061053c81610518565b92915050565b5f60208284031215610557576105566104e4565b5b5f6105648482850161052e565b91505092915050565b5f8115159050919050565b6105818161056d565b82525050565b5f60208201905061059a5f830184610578565b92915050565b5f819050919050565b6105b2816105a0565b81146105bc575f80fd5b50565b5f813590506105cd816105a9565b92915050565b5f602082840312156105e8576105e76104e4565b5b5f6105f5848285016105bf565b91505092915050565b610607816105a0565b82525050565b5f6020820190506106205f8301846105fe565b92915050565b61062f81610507565b82525050565b5f6020820190506106485f830184610626565b92915050565b5f82825260208201905092915050565b7f596f7520617265206e6f7420656c696769626c6520746f20766f7465000000005f82015250565b5f610692601c8361064e565b915061069d8261065e565b602082019050919050565b5f6020820190508181035f8301526106bf81610686565b9050919050565b7f596f75206861766520616c726561647920766f746564000000000000000000005f82015250565b5f6106fa60168361064e565b9150610705826106c6565b602082019050919050565b5f6020820190508181035f830152610727816106ee565b9050919050565b7f4e487b71000000000000000000000000000000000000000000000000000000005f52601160045260245ffd5b5f610765826105a0565b91507fffffffffffffffffffffffffffffffffffffffffffffffffffffffffffffffff82036107975761079661072e565b5b600182019050919050565b7f4f6e6c79207468652061646d696e2063616e20706572666f726d2074686973205f8201527f616374696f6e0000000000000000000000000000000000000000000000000000602082015250565b5f6107fc60268361064e565b9150610807826107a2565b604082019050919050565b5f6020820190508181035f830152610829816107f0565b905091905056fea26469706673582212204002b833f1bde7f4f8d5e5b4b9b0ba7ffa1c32c34801ec9205b523c08822fd6c64736f6c63430008150033",
  "immutableReferences": {},
  "source": "// SPDX-License-Identifier: MIT\npragma solidity ^0.8.0;\n\ncontract Voting {\n    address public admin;\n    mapping(address => bool) public eligibleVoters;\n    mapping(address => bool) public hasVoted;\n    mapping(uint => uint) public votes; // candidateID => vote count\n\n    event VoteCast(address indexed voter, uint candidateId);\n\n    modifier onlyAdmin() {\n        require(msg.sender == admin, \"Only the admin can perform this action\");\n        _;\n    }\n\n    modifier onlyEligibleVoter() {\n        require(eligibleVoters[msg.sender], \"You are not eligible to vote\");\n        require(!hasVoted[msg.sender], \"You have already voted\");\n        _;\n    }\n\n    constructor() {\n        admin = msg.sender;\n    }\n\n    function assignVoter(address _voter) public onlyAdmin {\n        eligibleVoters[_voter] = true;\n    }\n\n    function castVote(uint _candidateId) public onlyEligibleVoter {\n        votes[_candidateId]++;\n        hasVoted[msg.sender] = true;\n        emit VoteCast(msg.sender, _candidateId);\n    }\n\n    function getVoteCount(uint _candidateId) public view returns (uint) {\n        return votes[_candidateId];\n    }\n}\n",
  "sourcePath": "/Users/ellabrink/Desktop/senior fall/safeballot/blockchain/contracts/VotingContract.sol",
  "compiler": {
    "name": "solc",
    "version": "0.8.21+commit.d9974bed.Emscripten.clang"
  },
  "schemaVersion": "3.4.16",
  "updatedAt": "2024-10-31T16:40:43.918Z",
  "devdoc": {
    "kind": "dev",
    "methods": {},
    "version": 1
  },
  "userdoc": {
    "kind": "user",
    "methods": {},
    "version": 1
  }
}